:200000000C948F000C94B7000C94B7000C94B7000C94B7000C94B7000C94B7000C94B70050
:200020000C94B7000C94B7000C94B7000C94B7000C94B7000C94B7000C94B7000C94B70008
:200040000C948C030C94B7000C94FC030C94D6030C94B7000C94B7000C94B7000C94B700A6
:200060000C94B7000C94B70008000000BE922449123EABAAAA2ABECDCCCC4C3E0000008067
:20008000BEABAAAAAA3E00000000BF000000803F0000000000084178D3BB4387D1133D19EA
:2000A0000E3CC3BD4282AD2B3E68EC8276BED98FE1A93E4C80EFFFBE01C4FF7F3F00000068
:2000C00000000000000023002600290000000000240027002A0000000000250028002B00C1
:2000E0000404040404040404020202020202030303030303010204081020408001020408B4
:2001000010200102040810200000000800020100000304070000000000000000C806112454
:200120001FBECFEFD8E0DEBFCDBF11E0A0E0B1E0EEEFF3E102C005900D92A635B107D9F737
:2001400021E0A6E5B1E001C01D92AC3FB207E1F710E0CFE8D0E004C02197FE010E94F70922
:20016000CE38D107C9F70E9473040C94FD090C94000090E0FC01E85FFE4F2491FC01EC5093
:20018000FF4F3491FC01E052FF4FE491EE23C9F0222339F0233001F1A8F4213019F1223094
:2001A00029F1F0E0EE0FFF1FEA52FF4FA591B4918FB7F894EC91611126C030953E233C9399
:2001C0008FBF08952730A9F02830C9F0243049F7809180008F7D03C0809180008F77809395
:2001E0008000DFCF84B58F7784BDDBCF84B58F7DFBCF8091B0008F778093B000D2CF80915C
:20020000B0008F7DF9CF3E2BDACFCF93DF9390E0FC01EC50FF4F249180529F4FFC018491F6
:200220008823C9F090E0880F991FFC01E453FF4FA591B491FC01EA52FF4FC591D4916111EA
:200240000DC09FB7F8948C91209582238C938881282328839FBFDF91CF910895623051F4B8
:200260009FB7F8943C91822F809583238C93E8812E2BEFCF8FB7F894EC912E2B2C938FBF0F
:20028000EACF8E3008F08E508770806480937C0080917A00806480937A0080917A0086FD9D
:2002A000FCCF809178009091790008953FB7F89480915B0190915C01A0915D01B0915E0117
:2002C00026B5A89B05C02F3F19F00196A11DB11D3FBFBA2FA92F982F8827BC01CD01620F70
:2002E000711D811D911D42E0660F771F881F991F4A95D1F708958F929F92AF92BF92CF920F
:20030000DF92EF92FF924B015C010E9456016B017C010E9456016C197D098E099F09683EE6
:20032000734081059105A8F321E0821A9108A108B10888EEC80E83E0D81EE11CF11C811477
:200340009104A104B10429F7FF90EF90DF90CF90BF90AF909F908F900895AF92BF92CF9246
:20036000DF92EF92FF920F931F93CF93DF936C017B018B01040F151FEB015E01AE18BF083E
:20038000C017D10759F06991D601ED91FC910190F081E02DC6010995892B79F7C501DF91BB
:2003A000CF911F910F91FF90EF90DF90CF90BF90AF900895FC01538D448D252F30E0842FC1
:2003C00090E0821B930B541710F0CF96089501970895FC01918D828D981761F0A28DAE0FBA
:2003E000BF2FB11D5D968C91928D9F5F9F73928F90E008958FEF9FEF0895FC01918D828D01
:20040000981731F0828DE80FF11D858D90E008958FEF9FEF0895FC01918D228D892F90E03E
:20042000805C9F4F821B91098F73992708958FE591E00E940B0221E0892B09F420E0822F65
:20044000089580E090E0892B29F00E94170281110C9400000895FC01A48DA80FB92FB11D3D
:20046000A35ABF4F2C91848D90E001968F739927848FA689B7892C93A089B1898C91837026
:2004800080648C93938D848D981306C00288F389E02D80818F7D80830895EF92FF920F9343
:2004A0001F93CF93DF93EC0181E0888F9B8D8C8D98131AC0E889F989808185FF15C09FB7E8
:2004C000F894EE89FF896083E889F98980818370806480839FBF81E090E0DF91CF911F9131
:2004E0000F91FF90EF900895F62E0B8D10E00F5F1F4F0F731127E02E8C8D8E110CC00FB618
:2005000007FCFACFE889F989808185FFF5CFCE010E942B02F1CFEB8DEC0FFD2FF11DE35A8B
:20052000FF4FF0829FB7F8940B8FEA89FB8980818062CFCFCF93DF93EC01888D8823B9F0DD
:20054000AA89BB89E889F9898C9185FD03C0808186FD0DC00FB607FCF7CF8C9185FFF2CF8E
:20056000808185FFEDCFCE010E942B02E9CFDF91CF910895CF92DF92EF92FF921F93CF937F
:20058000DF93182F0E944101C8E0D0E0C12CD12C7601812F0E944101092E000CAA0BBB0BB3
:2005A000C80ED91EEA1EFB1E219799F7C701B60128E030E040E050E00E94D809C901DF9161
:2005C000CF911F91FF90EF90DF90CF900895EF92FF921F93CF93DF93182F62E00E940501C9
:2005E000CBEAD4E0CE010197F1F7812F0E944101812F0E9441017C0160E0812F0E94050106
:200600002197F1F781E09DEEE91693E0F9060CF080E0DF91CF911F91FF90EF900895FC0159
:2006200001900020E9F73197AF01481B590BBC018FE591E00C94AD018F929F92AF92BF9216
:200640000F931F93CF93DF93CDB7DEB7A1970FB6F894DEBF0FBECDBF19A2423008F44AE087
:200660008E010F5D1F4F842E912CB12CA12CA50194010E94B609E62FB901CA01EA30F4F4C0
:20068000E05DD801EE938D01232B242B252B79F790E080E0109719F0CD010E940F03A1969F
:2006A0000FB6F894DEBF0FBECDBFDF91CF911F910F91BF90AF909F908F900895E95CE1CF65
:2006C000CF92DF92EF92FF92CF93DF9397FF1BC06B017C016DE28FE591E00E944D02EC01F6
:2006E00066277727CB016C197D098E099F094AE00E941C038C0F9D1FDF91CF91FF90EF9099
:20070000DF90CF9008954AE0DF91CF91FF90EF90DF90CF900C941C031F920F920FB60F9221
:2007200011242F933F938F939F93AF93BF938091570190915801A0915901B0915A0130913D
:20074000560123E0230F2D3758F50196A11DB11D209356018093570190935801A0935901BB
:20076000B0935A0180915B0190915C01A0915D01B0915E010196A11DB11D80935B0190930C
:200780005C01A0935D01B0935E01BF91AF919F918F913F912F910F900FBE0F901F901895F2
:2007A00026E8230F0296A11DB11DD2CF1F920F920FB60F9211242F933F934F935F936F93DD
:2007C0007F938F939F93AF93BF93EF93FF938FE591E00E942B02FF91EF91BF91AF919F9187
:2007E0008F917F916F915F914F913F912F910F900FBE0F901F9018951F920F920FB60F924A
:2008000011242F938F939F93EF93FF93E0916F01F09170018081E0917501F091760182FD47
:200820001BC09081809178018F5F8F7320917901821741F0E0917801F0E0E15AFE4F958FF7
:2008400080937801FF91EF919F918F912F910F900FBE0F901F9018958081F4CFCF92DF92EF
:20086000EF92FF920F931F93E82FF92F05C0015011092109310961F1908196239417B9F3CC
:2008800005C0015011092109310911F1908196239413F7CFC12CD12CE12CF12C0AC08FEF2F
:2008A000C81AD80AE80AF80A0C151D052E053F0579F080818623841791F36C2D7D2D8E2D96
:2008C0009F2D1F910F91FF90EF90DF90CF90089560E070E080E090E01F910F91FF90EF90C5
:2008E000DF90CF900895789484B5826084BD84B5816084BD85B5826085BD85B5816085BD0F
:2009000080916E00816080936E001092810080918100826080938100809181008160809345
:200920008100809180008160809380008091B10084608093B1008091B00081608093B00062
:2009400080917A00846080937A0080917A00826080937A0080917A00816080937A00809197
:200960007A00806880937A001092C100E0916F01F091700182E08083E0916B01F0916C0122
:200980001082E0916D01F0916E0180E1808310927701E0917301F091740186E08083E091C3
:2009A0007101F0917201808180618083E0917101F0917201808188608083E0917101F091C5
:2009C0007201808180688083E0917101F091720180818F7D8083CAE1D1E004E111E0F88027
:2009E000229661E08F2D0E940501F80180810E5F1F4F60E00E94050160E08F2D0E94B90086
:200A0000F1E0C032DF0759F733E2232E312C4AE3842E912CA12CB12CC0E0D0E060E089E0DB
:200A20000E94B90083E090E00197F1F761E089E00E94B900C1010197F1F760E089E00E9476
:200A4000B900EEEFF0E06491EAEEF0E08491E82FF0E0EE0FFF1FEE53FF4F8591949108EAC0
:200A600011E620E030E0462F0E942E046115710581059105B9F06F5F7F4F8F4F9F4F9F70FE
:200A8000611571058105910569F0A50194010E94B60969017A01F1E9CF16F1E0DF06E1041A
:200AA000F10420F0CC24CA94DC2C76016FE070E080E090E00E947B0182E391E00E940F034D
:200AC000C701B6010E94600380E291E00E940F036FEF7FEFCB010E94600384E291E00E94F5
:200AE0000F036FEF7FEFCB010E9460038EE090E00E94E702882371F088E291E00E940F0343
:200B00008EE090E00E94BA02BC01990F880B990B0E9460038FE090E00E94E702882309F4E6
:200B200098C08FE090E00E94BA0290930101809300019C0123503109253E334008F0C6C049
:200B4000BC01990F880B990B0E940A089B01AC0160E070EC8FE794E40E94670720E030E052
:200B600040E85FE30E94F50620E030E44CE156E40E940F0920E030E44CE156E40E946707AE
:200B80000E94C70820E030EE46E755E40E9467072FE03FEC4BE55BE30E94F6069B01AC01C1
:200BA00060E070E080E89FE30E94670723E333E948E853E40E94F5066B017C018EE291E0BB
:200BC0000E940F036091000170910101072E000C880B990B0E946003A7019601C701B60131
:200BE0000E947C09811135C020E030E040EA51ECC701B6010E94BA0818165CF520E030E05E
:200C000040EA52E4C701B6010E94620787FF21C085E391E00E940F0326013701E89477F8AC
:200C20002FEF3FEF4FE75FE7C301B2010E947C09811153C02FEF3FEF4FE75FE7C301B2016A
:200C40000E94620718160CF048C08CE391E00E940F0380E190E00E94E702882371F084E4F3
:200C600091E00E940F0380E190E00E94BA02BC01990F880B990B0E94600381E190E00E940B
:200C8000E702882371F08DE491E00E940F0381E190E00E94BA02BC01990F880B990B0E945B
:200CA000600383E591E00E940F0364E170E080E090E00E947B01209709F4B0CE0E941702D4
:200CC000882309F4ABCE0E940000A8CEC12CD12C80ECE82E8FE7F82E71CF2FEF3FEF4FE711
:200CE0005FE4C701B6010E94BA0818161CF480E491E0ADCF2FEF3FEF4FE75FECC701B601F3
:200D00000E94620787FDF3CF20E030E0A901C701B6010E94620787FF09C06DE28FE591E0BB
:200D20000E944D02F7FAF094F7F8F0942DEC3CEC4CE45DE3C701B6010E94F6062B013C01A3
:200D40000E94D9076B017C010E9408089B01AC01C301B2010E94F5062B013C014AE0C701BE
:200D6000B6010E941C036EE28FE591E00E944D0220E030E040E251E4C301B2010E940F093D
:200D80000E94D90790E080E04AE00E941C0361CFEFE5F1E01382128288EE93E0A0E0B0E01F
:200DA00084839583A683B78386E091E09183808385EC90E09587848784EC90E097878687B0
:200DC00080EC90E0918B808B81EC90E0938B828B82EC90E0958B848B86EC90E0978B868BE6
:200DE000118E128E138E148E08955058BB27AA270E940D070C9480080E94720838F00E94B5
:200E0000790820F039F49F3F19F426F40C946F080EF4E095E7FB0C946908E92F0E9491083B
:200E200058F3BA17620773078407950720F079F4A6F50C94B3080EF4E0950B2EBA2FA02DB3
:200E40000B01B90190010C01CA01A0011124FF27591B99F0593F50F4503E68F11A16F04047
:200E6000A22F232F342F4427585FF3CF469537952795A795F0405395C9F77EF41F16BA0B25
:200E8000620B730B840BBAF09150A1F0FF0FBB1F661F771F881FC2F70EC0BA0F621F731FAF
:200EA000841F48F4879577956795B795F7959E3F08F0B0CF9395880F08F09927EE0F979563
:200EC000879508950E94450808F481E008950E947B070C9480080E94790858F00E9472089D
:200EE00040F029F45F3F29F00C94690851110C94B4080C946F080E94910868F39923B1F312
:200F0000552391F3951B550BBB27AA2762177307840738F09F5F5F4F220F331F441FAA1F11
:200F2000A9F335D00E2E3AF0E0E832D091505040E695001CCAF72BD0FE2F29D0660F771FEB
:200F4000881FBB1F261737074807AB07B0E809F0BB0B802DBF01FF2793585F4F3AF09E3F0A
:200F6000510578F00C9469080C94B4085F3FE4F3983ED4F3869577956795B795F7959F5F3B
:200F8000C9F7880F911D9695879597F90895E1E0660F771F881FBB1F621773078407BA074C
:200FA00020F0621B730B840BBA0BEE1F88F7E09508950E94990888F09F5798F0B92F992753
:200FC000B751B0F0E1F0660F771F881F991F1AF0BA95C9F714C0B13091F00E94B308B1E0F1
:200FE00008950C94B308672F782F8827B85F39F0B93FCCF3869577956795B395D9F73EF4A9
:2010000090958095709561957F4F8F4F9F4F0895E89409C097FB3EF4909580957095619526
:201020007F4F8F4F9F4F9923A9F0F92F96E9BB279395F695879577956795B795F111F8CF4C
:20104000FAF4BB0F11F460FF1BC06F5F7F4F8F4F9F4F16C0882311F096E911C0772321F0B4
:201060009EE8872F762F05C0662371F096E8862F70E060E02AF09A95660F771F881FDAF751
:20108000880F9695879597F90895990F0008550FAA0BE0E8FEEF16161706E807F907C0F0DF
:2010A00012161306E407F50798F0621B730B840B950B39F40A2661F0232B242B252B21F4A6
:2010C00008950A2609F4A140A6958FEF811D811D089597F99F6780E870E060E008959FEF1A
:2010E00080EC089500240A941616170618060906089500240A94121613061406050608954D
:20110000092E0394000C11F4882352F0BB0F40F4BF2B11F460FF04C06F5F7F4F8F4F9F4F8B
:20112000089557FD9058440F551F59F05F3F71F04795880F97FB991F61F09F3F79F0879556
:201140000895121613061406551FF2CF4695F1DF08C0161617061806991FF1CF869571057F
:20116000610508940895E894BB2766277727CB0197F908950E94450808F48FEF089516F042
:201180000C9481090C946F0868940C9469080E949908A8F39923C1F3AEF3DF93CF931F938C
:2011A0000F93FF92C92FDD2788232AF02197660F771F881FDAF720E030E040E85FEB9FE3FC
:2011C000883920F0803E38F021968F770E94F606E8E6F0E004C00E94F606E5E9F0E00E94BD
:2011E0008F098B01BE01EC01FB2E6F5771097595771F880B990B0E940A0828E132E741E3E5
:201200005FE30E942209AF2D9801AE01FF900F911F91CF91DF910E940D070C9480080E946C
:2012200022090C9480080E94720838F00E94790820F0952311F00C9469080C946F081124CE
:201240000C94B4080E94910870F3959FC1F3950F50E0551F629FF001729FBB27F00DB11DB4
:20126000639FAA27F00DB11DAA1F649F6627B00DA11D661F829F2227B00DA11D621F739FFF
:20128000B00DA11D621F839FA00D611D221F749F3327A00D611D231F849F600D211D822F6B
:2012A000762F6A2F11249F5750409AF0F1F088234AF0EE0FFF1FBB1F661F771F881F91504D
:2012C0005040A9F79E3F510580F00C9469080C94B4085F3FE4F3983ED4F386957795679599
:2012E000B795F795E7959F5FC1F7FE2B880F911D9695879597F908950E944508880B990BDC
:2013000008959F3F31F0915020F4879577956795B795880F911D9695879597F90895DF93A1
:20132000CF931F930F93FF92EF92DF927B018C01689406C0DA2EEF010E942209FE01E89469
:20134000A5912591359145915591A6F3EF010E940D07FE019701A801DA9469F7DF90EF90E4
:20136000FF900F911F91CF91DF910895A1E21A2EAA1BBB1BFD010DC0AA1FBB1FEE1FFF1F22
:20138000A217B307E407F50720F0A21BB30BE40BF50B661F771F881F991F1A9469F76095FC
:2013A0007095809590959B01AC01BD01CF010895052E97FB1EF400940E94EF0957FD07D04A
:2013C0000E94B60907FC03D04EF40C94EF0950954095309521953F4F4F4F5F4F089590952B
:2013E0008095709561957F4F8F4F9F4F0895EE0FFF1F0590F491E02D0994F894FFCFFFFF6F
:20140000000000004D02AD01DA019A020B02E901FD010A0008000C00090007000B002067A3
:201420003D0020643D002067617A3D0020746164633D002074656D703D00696E66006F76E1
:201440006600207661706575723D00206C756D3D000D0A00730BCECFFC0177FD64C08085BF
:201460009185681779070CF05EC057FD5CC082859385481759070CF056C086898230B1F07B
:20148000833029F1813041F484819581841B950BAB01BC01615071092130310509F108F42E
:2014A00043C02230310509F463C0089584819581DC01A61BB70BBD01615071098681978161
:2014C000DC01A41BB50BAD0141505109E5CF86819781861B970BBA01AC0141505109DCCF03
:2014E000CA0157FD0796A3E095958795AA95E1F7A481B5818A9F90018B9F300D9A9F300D5E
:201500001124620F731F078CF0A1E02DE60FF71F4770552721E030E001C0220F4A95EAF761
:201520008081822B80830895CA0157FD079633E0959587953A95E1F7A481B5818A9F90018C
:201540008B9F300D9A9F300D1124620F731F078CF0A1E02DE60FF71F4770552781E090E036
:2015600001C0880F4A95EAF7809590818923DACFCA0157FD079623E0959587952A95E1F73C
:20158000A481B5818A9F90018B9F300D9A9F300D1124620F731F078CF0A1E02DE60FF71FE5
:2015A0004770552721E030E001C0220F4A95EAF780818227B7CF08958EBD00000DB407FE57
:2015C000FDCF8EB508958CBD9DBD08950895FC016370668B8481958126813781613039F08D
:2015E000633029F091878087338722870895318720879387828708952F923F924F925F929D
:201600006F927F928F929F92AF92BF92CF92DF92EF92FF920F931F93CF93DF93CDB7DEB7AF
:201620006A970FB6F894DEBF0FBECDBF9A8F898F7A8369834A01D22E18870F833701BC2C9C
:20164000DC0159962D913C915A972115310509F015C118968D919C911997681779070CF063
:20166000D7C11A968D919C91481759070CF0D0C14C2C512CB6E0CB9E600D711D11247C8764
:201680006B87161617060CF0C3C1EA2DF0E0FA87E98793E0EE0FFF1F9A95E1F7F88BEF8729
:2016A000CF01840F951F181619060CF0B1C1A98DBA8D58968C91811104C0BFEABD1508F403
:2016C000D394A98DBA8DED91FC9111970284F385E02DCD010995B5E0DB9EC0011124E9818E
:2016E000FA81FC83EB83312C212C9C012F563F4F388F2F8B4A2D50E05E8B4D8BEF89F88D42
:20170000E20DF31D44919E828D82D12CC12C69817A81620D731D7A8B698B842F90E09C8BB5
:201720008B8BE98DFA8DA081B18140FF82C0F1E0BF126FC0AF126DC01C96ED91FC912F8196
:201740003885A4014C0D5D1D69897A89898D9A8D0995EB89FC89F595E7954E2F5FEFC51ADB
:20176000D50A6D817E818D899E89680F791F7E836D8398E0C916D10481F6AFEF2A1A3A0A97
:20178000EB81FC81E40DF51DFC83EB83F5E02F16310409F0B3CF2F81388526153705B9F019
:2017A000A98DBA8DED91FC91B1E0BB1257C0AB1255C069817A816B5F7F4F0088F189E02DCE
:2017C000830128E030E0A401898D9A8D0995A98DBA8DED91FC9111970688F789E02DCD01D4
:2017E0006A960FB6F894DEBF0FBECDBFDF91CF911F910F91FF90EF90DF90CF90BF90AF9018
:201800009F908F907F906F905F904F903F902F9009941E96ED91FC91EF80F88409851A859C
:2018200092014D815E816B817C81898D9A8D099590CF2F8138852615370509F48ACF31E0FA
:20184000B31207C0A31205C01C96ED91FC91930178CF1E96ED91FC917301E0CF6B857C8517
:20186000641975090684F785E02D73010F8518899201A401898D9A8D0995A9CFF901349662
:201880009491329745915491D91AB7E0DB9E400D511D1124F901259134913C8B2B8BFA01BF
:2018A00025903490FA013296749031963491398B329664903196449041E04C1518F04A1558
:2018C00008F07FC0662D062C000C770B7C836B83842D042C000C990B9E838D83A98DBA8D52
:2018E000ED91FC9111970284F385E02DCD010995512CD12CC12CEA2DF0E0FA87E9872B2D27
:2019000030E03C872B87A401440D511D47FC5A95588F4F8B69817A81660D711D67FC7A9593
:201920007E876D877989C71608F051CF2C2D30E04D815E81420F531FA985BA854A9FC001C7
:201940004B9F900D5A9F900D1124FC01E80DF91DF88BEF87852D612C4F89588D420F531F75
:201960005E8B4D8B671408F050C044244394480E877041F4C1010196EB89FC89E20DF31D11
:20198000D4901C01D7FE19C0A98DBA8DED91FC91662D70E0B1E0BB1219C0AB1217C02D8530
:2019A0003E85620F731F0484F585E02D2F8138854D895E89898D9A8D0995DD0C6394842DBC
:2019C000D1CF1E821D821C821B8288CF4B815C81640F751FAB85BC856A9FC0016B9F900D04
:2019E0007A9F900D112469817A81680F791F0684F785E02DEF80F88409851A859D014F856B
:201A00005889898D9A8D0995D8CF570CC3948ACF6A960FB6F894DEBF0FBECDBFDF91CF9139
:201A20001F910F91FF90EF90DF90CF90BF90AF909F908F907F906F905F904F903F902F9034
:201A400008958F929F92AF92CF92EF92FF920F931F93CF93DF93EC01262F898D9A8D0097A5
:201A600009F051C06A30D1F41D861C868D8948E0849F900111248E859F85820F931F9F87F1
:201A80008E8781E090E0DF91CF911F910F91FF90EF90CF90AF909F908F9008956D3089F390
:201AA000CC88AD888F898823C1F08C859D8536E0C39E800D911D11244885598548175907A5
:201AC00064F44E855F851D861C8638E0A39EC0011124840F951F9F878E87EA88FB8808895B
:201AE00019894E855F856C857D85CE010E94FC0A2C898C859D8546E0249F800D911D1124E2
:201B00009D878C87BECF6A3069F41D861C86FC013896E4912D898E859F85E29F800D911DDC
:201B20001124ADCF6D3009F4ACCFFC0134963491631708F4A6CF3296E491E61708F4A1CFC2
:201B4000FC01329685909490462F431B342F47E0349F800C911C1124F401329634913196A0
:201B6000E4913323A9F1EE2399F1CC88F4013596E491AD884F89442301F10E2E000CFF0B24
:201B8000E30FF11DCE9EA001CF9E500D11246C857D85460F571F68857985641775076CF439
:201BA0004E855F851D861C86FC013896E491AE9E400D511D11245F874E87EA88FB8808896C
:201BC00019894E855F856C857D85CE010E94FC0AF4013496E4912C898C859D85E29F800D18
:201BE000911D11248DCF6F927F928F929F92AF92BF92CF92DF92EF92FF920F931F93CF9316
:201C0000DF93EC016B015A0139014801E881F9810284F385E02D0995E881F9810288F389A6
:201C2000E02D87019301A501B601CE010995A501480D591D41505109E881F9810288F3896C
:201C4000E02D9301B601CE010995E881F9810088F189E02D9401A501B601CE010995C60C9C
:201C6000D71CB60161507109E881F9810088F189E02D9401A501CE010995E881F981068884
:201C8000F789E02DCE01DF91CF911F910F91FF90EF90DF90CF90BF90AF909F908F907F9001
:201CA0006F9009946F927F928F929F92AF92BF92CF92DF92EF92FF920F931F93CF93DF9386
:201CC0005C01EB016A01490138018701DC01ED91FC916217730719F5641675062CF0962D88
:201CE000872D3A01C92ED82E9601261937092F5F3F4F048CF58DE02DA301BE01C5010995E0
:201D0000DF91CF911F910F91FF90EF90DF90CF90BF90AF909F908F907F906F9008954615E5
:201D2000570591F42617370724F0892D4B01C22FD82F9E01281939092F5F3F4F068CF78DE5
:201D4000E02DA601B401DACF0284F385E02D0995D501ED91FC910488F589E02D83019401B7
:201D6000A601BE01C5010995D501ED91FC910688F789E02DC501DF91CF911F910F91FF9028
:201D8000EF90DF90CF90BF90AF909F908F907F906F900994EF92FF920F931F93DC011A967C
:201DA0000D911C911B9718962D913C911997ED91FC9100A0F1A1E02D7B0150E040E070E0D7
:201DC00060E009951F910F91FF90EF9008954F925F926F927F928F929F92AF92BF92CF9201
:201DE000DF92EF92FF920F931F93CF93DF936C012B015A0139014801DC01ED91FC91028453
:201E0000F385E02D0995E201640C751CD601ED91FC91C615D7055CF40088F189E02D87013B
:201E20009401A501BE01C60109952196EFCF0688F789E02DC601DF91CF911F910F91FF903D
:201E4000EF90DF90CF90BF90AF909F908F907F906F905F904F9009948F929F92AF92BF92FC
:201E6000CF92DF92EF92FF920F931F93CF93DF93EC015B014A016901E881F9810284F38577
:201E8000E02D099595012C0D3D1D21503109E881F9810488F589E02D78018401A401B50170
:201EA000CE010995E881F9810688F789E02DCE01DF91CF911F910F91FF90EF90DF90CF90EC
:201EC000BF90AF909F908F9009948F929F92AF92BF92CF92DF92EF92FF920F931F93CF930B
:201EE000DF93EC015B014A0169017801E881F9810284F385E02D0995C80CD91C86010150CC
:201F00001109E881F9810488F589E02D9501A401B501CE010995E881F9810688F789E02D51
:201F2000CE01DF91CF911F910F91FF90EF90DF90CF90BF90AF909F908F900994EF92FF924B
:201F40000F931F93DC01ED91FC9100A0F1A1E02D09951F910F91FF90EF9008950F931F9319
:201F6000DC01ED91FC91068CF78DE02D09951F910F9108952F923F924F925F926F927F9255
:201F80008F929F92AF92BF92CF92DF92EF92FF920F931F93CF93DF93CDB7DEB7A4970FB638
:201FA000F894DEBF0FBECDBF7CA36BA32A01690138015701261737070CF082C1E616F70699
:201FC0000CF495C1621773075CF03BA12CA1DCA2CBA2C32ED22E382F292FC201432E522E74
:201FE0002BA13CA12A153B05E1F54816590654F0382F292F8415950514F4342D252D2C0108
:20200000832F922F641475042CF0861597050CF4C3013201861997099C012F5F3F4F01E039
:2020200010E04BA15CA1B30187E493E00E94AE0FA4960FB6F894DEBF0FBECDBFDF91CF9185
:202040001F910F91FF90EF90DF90CF90BF90AF909F908F907F906F905F904F903F902F900E
:202060000895362D272D3C01832F922F3A2D2B2DABA0BCA03BA32CA3920126193709A60190
:202080004A195B09BC01661977097A8B698BABA1BCA1AA19BB09BE83AD834C01841895089D
:2020A0006BA17CA16C197D097E876D878BA19CA1EBA0FCA08C159D0521F0760191E0E91A24
:2020C000F108150119861A861B861C8619821A821B821C8269897A89072E000C880B990B90
:2020E0006B8B7C8B8D8B9E8BCA01550FAA0BBB0B8F8B988FA98FBA8F4D815E81052E000C4A
:20210000660B770B4B8F5C8F6D8F7E8FB901330F880B990B6F8F78A389A39AA3E214F3045C
:202120000CF45CC069817A818B819C812F89388D498D5A8D0E940D258301020F131F6985B2
:202140007A858B859C852B8D3C8D4D8D5E8D0E940D25B301620F731F89819A81AB81BC81F0
:202160002F8D38A149A15AA1820F931FA41FB51F89839A83AB83BC8389859A85AB85BC85D7
:202180002B893C894D895E89820F931FA41FB51F89879A87AB87BC87601771072CF0962FB9
:2021A000872FB801092F182F9801261B370B2F5F3F4F01E010E0A10187E493E00E94AE0F49
:2021C0003FEF231A330AAACF342D252D2C01832F922F3BA12CA1DCA2CBA295C0A401092CC8
:2021E000000C660B770B49835A836B837C8391012C193D09D4010E9482256B017C01910194
:202200002A193B09A989BA890E9482254B015C016D857E85072E000C880B990B6D877E876A
:202220008F87988B8D819E81092E000CAA0BBB0B8D839E83AF83B887ABA1BCA1A215B305C0
:202240000CF4F6CEC701B6012D853E854F8558890E940D258201020F131FC501B4012D814E
:202260003E814F8158850E940D25B301620F731F29813A814B815C81C20ED31EE41EF51E83
:202280008B899C89AD89BE89880E991EAA1EBB1E601771072CF0962F872FB801092F182FDC
:2022A0009801261B370B2F5F3F4F01E010E0A10187E493E00E94AE0F9FEF291A390ABCCF97
:2022C000E216F3060CF08CCEABA1BCA1EA16FB060CF47ACF272D3A012C01802F922F3C2D2F
:2022E0002D2D6D01FCA2EBA2A32EB22E6ECEE216F3060CF4C1CE362D272D3201432E522EA3
:202300003A2D2B2D5601C32ED22EB6CE0F931F93DC01ED91FC91048CF58DE02D09951F9189
:202320000F9108952F923F924F925F926F927F928F929F92AF92BF92CF92DF92EF92FF9222
:202340000F931F93CF93DF93CDB7DEB72A970FB6F894DEBF0FBECDBF3C012B015A8749871A
:20236000180181E090E05C01A41AB50ACA01919581959109AC01440F551F5A834983C80112
:2023800001969C838B83F12CE12C88248394912C922F91709D8322702E83AB014F5F5F4FA2
:2023A00058874F8389859A85E816F9060CF07CC0C984DA84B7FC0CC06C0191E0C91AD10846
:2023C00049815A814E5F5F4F5A834983A40EB51E5FEFE51AF50A82E0880E911CA80CB91C55
:2023E000CE14DF0464F19D81992399F09601220F331F4B815C81240F351F01E010E0A201A2
:202400004C195D09B701660D771D87E493E00E9486115E81552399F09601220F331F8B8115
:202420009C81280F391F01E010E0A2014C195D09B3016E197F0987E493E00E948611498509
:202440005A854C155D0569F15D81552399F0940122503109220D331D01E010E04F81588563
:202460004E195F0969857A85660D771D87E493E00E9486118E818823A1F0940122503109F6
:20248000220D331DB30149855A85641B750B01E010E04F8158854E195F0987E493E00E9490
:2024A0008611DA86C9867ECF2A960FB6F894DEBF0FBECDBFDF91CF911F910F91FF90EF9054
:2024C000DF90CF90BF90AF909F908F907F906F905F904F903F902F9008952F923F924F92D8
:2024E0005F926F927F928F929F92AF92BF92CF92DF92EF92FF920F931F93CF93DF932C01BC
:202500004B015A016901E901D595C7950C171D070CF4E8013E01660C771C1E01240C351CE6
:20252000950126193709EE24E394F12C8601A401B10187E493E00E949E0FC618D70881E0B7
:20254000C81AD1088C0E9D1EA40CB51CC5018C1B9D0B860121E0AE01B40101970E9492110C
:2025600022E0AE01B401C1010E949211DF91CF911F910F91FF90EF90DF90CF90BF90AF9064
:202580009F908F907F906F905F904F903F902F9008950F931F93CF93DF93EC0101E010E000
:2025A0002FE130E047E050E0BC0187E493E00E94861110E000E023E04FE050E066E170E007
:2025C000CE010E949211DF91CF911F910F910895DC01ED91FC910084F185E02D09943F92CD
:2025E0004F925F926F927F928F929F92AF92BF92CF92DF92EF92FF920F931F93CF93DF9307
:202600005C017B014A016901390187E0680E711C93E0759467949A95E1F72B01400E511E21
:2026200010E000E0312CD0E0C0E0CE0187709927330C892B59F4FE0183E0F595E7958A95D0
:20264000E1F7E00FF11FE80DF91D349037FE0AC021E030E0A701B5016C0F7D1F87E493E071
:202660000E94E8122196CC16DD06F9F68FEFE81AF80A060D171DE414F504A9F6DF91CF912A
:202680001F910F91FF90EF90DF90CF90BF90AF909F908F907F906F905F904F903F900895EA
:2026A0002F923F924F925F926F927F928F929F92AF92BF92CF92DF92EF92FF920F931F9388
:2026C000CF93DF9300D000D000D0CDB7DEB73C016A013E832D83FC82EB825801A41AB50AC3
:2026E000B7FE03C0B194A194B1088D809E80861A970A97FE03C09194819491088A149B045B
:202700005CF0902F812F0D811E819D838E839C2D8D2D6B01692F782F0C151D055CF09D81C5
:202720008E817E836D83692F782F902F812F8601C92ED82E1601201A310A2B012D813E8142
:20274000421A530A57FE03C0519441945108710137FE03C03FEFE31AF30AF594E7948D81F1
:202760009E81861797075CF5A1E0B0E0BA83A983C016D1064CF1D301ED91FC910484F58569
:20278000E02D2B813C81A8016D817E818A149B041CF04D815E81B801C3010995E418F50823
:2027A000F7FE0AC02D813E8189819A81280F391F3E832D83E20CF31C0F5F1F4FD9CF2FEF29
:2027C0003FEF3A832983D4CF26960FB6F894DEBF0FBECDBFDF91CF911F910F91FF90EF908E
:2027E000DF90CF90BF90AF909F908F907F906F905F904F903F902F900895089520910102D7
:20280000260F3327331F21323105ECF420912502FC0190E080E0243069F082E00895A091EC
:2028200001022191AC014F515E4FA40FB52FB11D2C930196861798F380910102680F609388
:20284000010280E0089581E008951092250281E0809327021092260261E082E10E94A3065B
:2028600061E083E10E94A306E9EBF0E080818E7F808380818D7F808388E48093B80085E403
:202880008093BC000895CF93DF9391E09093E0018823B9F0C091B800D091BA008091BC003E
:2028A0008A7B8093BC0060E082E10E94A30660E083E10E94A3060E942514D093BA00C0931C
:2028C000B800DF91CF910895E091520280915102E81730F4F0E0E554FE4F808190E0089523
:2028E0008FEF9FEF089590915202809151022FEF3FEF981748F4E92FF0E0E554FE4F208110
:2029000030E09F5F90935202C90108958091510290915202891B990B0895CF92DF92EF92BA
:20292000FF920F931F93CF93DF937C01CB018A0120917502222389F0EB016B01C40ED51E07
:20294000CC15DD0569F06991D701ED91FC910190F081E02DC7010995F3CF642F0E94FE1301
:20296000C801DF91CF911F910F91FF90EF90DF90CF900895CF93DF931F92CDB7DEB769836B
:20298000209175022223F9F020917202203258F021E030E0FC013383228390E080E00F904A
:2029A000DF91CF91089580917302E82FF0E0E556FE4F998190838F5F80937302809372028B
:2029C00081E090E0ECCF61E0CE0101960E94FE13F7CFCF92DF92EF92FF920F931F93CF93B1
:2029E000DF93D091720281E0D13208F09CC0C09174020E94EF066B017C01809125028111C7
:202A00006CC082E08093250281E0809327028FEF8093240210924902D0934802ABE9B1E0DB
:202A2000E8E2F2E080E0D8138DC010924A0280914A02CC0FC82BC0934A02809126028130C0
:202A400009F084C0109226020E94EF066B017C0180914A028093BB008091DC019091DD01D7
:202A6000A091DE01B091DF01892B8A2B8B2BA1F00E94EF060091DC011091DD012091DE0161
:202A80003091DF016C197D098E099F09061717072807390708F442C08091BC0083FDD8CFAF
:202AA00085EC8093BC000E94EF066B017C0180912502823009F44CC0809124028F3F09F461
:202AC00069C080912402803209F466C080912402803309F463C084E026C08091DC0190915E
:202AE000DD01A091DE01B091DF01892B8A2B8B2B09F483CF0E94EF060091DC011091DD01D5
:202B00002091DE013091DF016C197D098E099F09061717072807390708F06FCF8091DB016D
:202B20000E94431485E0109273021092720210927502DF91CF911F910F91FF90EF90DF9054
:202B4000CF9008959D9191938F5F6DCF85EEA9CF8091DC019091DD01A091DE01B091DF01F4
:202B6000892B8A2B8B2B09F4A2CF0E94EF060091DC011091DD012091DE013091DF016C198E
:202B80007D098E099F09061717072807390708F08ECFC4CF80E0C7CF82E0C5CF83E0C3CFFD
:202BA000EF92FF920F931F93CF93DF937C01C62F8091640390916503009709F459C020910A
:202BC000680331E030937502209374021092730210927202DC01ED91FC910190F081E02DF2
:202BE00060E009958701EE24E394F12CD1E0C1508091640390916503CF3F91F1B0E2EB16E3
:202C0000F104D8F00E94E914809164039091650320916803D0937502209374021092730221
:202C200010927202DC01ED91FC910190F081E02D60E00995EE24E394F12C8091640390916A
:202C40006503F8016491DC01ED91FC910190F081E02D0995BFEFEB1AFB0A0F5F1F4FC7CF5F
:202C6000DF91CF911F910F91FF90EF900C94E914E0917403F0917503908180917A038095F4
:202C8000892380838701C15008F438C0F80184912091620330916303232B29F00E94DC0ABE
:202CA0000F5F1F4FF0CF28E030E040E8E0917003F091710390917803582F5423D9F050812C
:202CC000952B9083E0917203F0917303908150917903952B9083E0917203F0917303508155
:202CE00090917903909595239083469521503109E9F6D6CF508190959523E3CFDF91CF910D
:202D00001F910F91FF90EF9008951F93CF93DF93EC018D8D9E8D009721F1162F29A131E037
:202D200030937502209374021092730210927202DC01ED91FC910190F081E02D60E009952E
:202D40008D8D9E8DDC01ED91FC910190F081E02D612F09958D8D9E8DDF91CF911F910C94A4
:202D6000E914ADA5BEA59C918BA9809589238C938B8D9C8D892B31F0862FDF91CF911F9115
:202D80000C94DC0A28E030E080E8A9A5BAA599A9462F4823C1F04C91942B9C93ABA5BCA531
:202DA0009C914AA9942B9C93ABA5BCA54C919AA9909594239C9386952150310931F7DF91CB
:202DC000CF911F9108954C9190959423E6CFDF92EF92FF920F931F93CF93DF9380916403B5
:202DE00090916503892B09F4A5C020917C0330917D0340917E0350917F0360E074E284EF05
:202E000090E00E943F25205131094109510956954795379527952093B80064E08CE99BE0FF
:202E20000E94D01580914B0390914C038034910509F097C060E287E493E00E948516609154
:202E40004B03615E87E493E00E94851620914D0330914E03C901079697FD079633E0959562
:202E600087953A95E1F720914B0330914C03829F8001839F100D929F100D1124C091660362
:202E8000D091670380916403909165030C0F1D1F009709F498C02091680331E030937502BC
:202EA000209374021092730210927202DC01ED91FC910190F081E02D60E40995EE24E3945A
:202EC000F12CDD24D39480916403909165030C171D0709F44FC0B0E2EB16F104D8F00E9427
:202EE000E914809164039091650320916803D0927502209374021092730210927202DC01AC
:202F0000ED91FC910190F081E02D60E40995EE24E394F12C80916403909165036991DC0137
:202F2000ED91FC910190F081E02D0995BFEFEB1AFB0AC9CF8091620390916303892B31F0B7
:202F400080918503909186030E94E30AE0917603F0917703908180917B0380958923808356
:202F60005CCF60E087E493E00E94851660914B03615068CF0E94E914809164039091650304
:202F8000892B09F461C02091800330918103409182035091830360E074E284EF90E00E940E
:202FA0003F25205131094109510956954795379527952093B800DF91CF911F910F91FF90F5
:202FC000EF90DF900895E0917403F0917503808190917A03892B80830C171D0769F2899173
:202FE0002091620330916303232B19F00E94DC0AF3CF28E030E040E8E0917003F0917103DA
:2030000090917803582F5423D9F05081952B9083E0917203F0917303908150917903952B9E
:203020009083E0917203F0917303508190917903909595239083469521503109E9F6CCCF42
:20304000508190959523E3CFE0917603F0917703808190917B03892B8083ADCF1F93CF9344
:20306000DF93EC01162F8D8D9E8D892BB1F12DA93EA94FA958AD60E074E284EF90E00E943C
:203080003F25205131094109510956954795379527952093B80066EA111167EACE010E948F
:2030A00085168D8D9E8D892B41F129AD3AAD4BAD5CAD60E074E284EF90E00E943F2520519C
:2030C00031094109510956954795379527952093B800DF91CF911F9108958B8D9C8D892B46
:2030E00021F08EAD9FAD0E94E30AEFA5F8A990818CA9809589238083CECFEFA5F8A9808197
:203100009CA9892B8083E5CF90E080E00895EF92FF920F931F93EE24E394F12C00E310E0B3
:2031200022E330E04AE350E06CE170E087E493E00E94520E2EE430E040E350E062E370E096
:2031400087E493E00E94520E0AE310E024E630E040E350E06EE470E087E493E00E94520EC3
:203160001F910F91FF90EF9008950F931F93882379F007E010E022E130E042E350E067E264
:2031800070E087E290E00E946D121F910F91089502E010E024E030E042E350E06EE270E01D
:2031A000F0CFEF92FF920F931F9388E0E82EF12C00E310E020E230E04EE150E068E070E073
:2031C0008CE090E00E94BA0F04E710E020E230E042E650E068E070E080E590E00E94BA0F8B
:2031E0001F910F91FF90EF900895EF92FF920F931F9380E2E82EF12C00E310E028E030E0EE
:203200004EE150E060E270E08CE090E00E94BA0F04E710E028E030E042E650E060E270E099
:2032200080E590E00E94BA0F1F910F91FF90EF9008950F931F938823C9F002E010E024E0C5
:2032400030E04EE150E064E170E08FE090E00E946D1224E030E04EE150E064E170E083E5FA
:2032600090E00E946D121F910F9108958EE190E00E94C91282E690E01F910F910C94C912D1
:203280008F929F92AF92BF920F931F93CF93DF93CDB7DEB7A1970FB6F894DEBF0FBECDBF8A
:2032A00019A2423008F44AE08E010F5D1F4F842E912CB12CA12CA50194010E943F25E62FE3
:2032C000B901CA01EA3044F5E05DD801EE938D01232B242B252B79F790E080E0109769F0C4
:2032E000FD0101900020E9F73197AF014A1B5B0BBD0187E493E00E947807A1960FB6F894B7
:20330000DEBF0FBECDBFDF91CF911F910F91BF90AF909F908F900895E95CD7CFCF92DF9261
:20332000EF92FF92CF93DF936B017C016DE287E493E00E94210DEC0166277727CB016C1958
:203340007D098E099F094AE00E9440198C0F9D1FDF91CF91FF90EF90DF90CF9008950F9341
:203360001F93CF93DF93EC010E9454078C01E881F9810280F381E02D42E050E062E671E07F
:20338000CE010995800F911FDF91CF911F910F910895AC01E7E4F3E091E0948B958B21E0C8
:2033A00030E0338B228B318B208B7587648788E390E097878687BA01CF010C94AF1920919A
:2033C0004D0330914E03C901079697FD079623E0959587952A95E1F720914B0330914C0304
:2033E000829FA001839F500D929F500D112470E060E080916603909167030C94BB260E9411
:20340000B62685ED8093BC008091DC019091DD01A091DE01B091DF010796A11DB11D23E045
:20342000B695A795979587952A95D1F72091BC0024FD03C01092250208954091DC015091F0
:20344000DD016091DE017091DF01452B462B472B69F30097A105B10541F02AE22A95F1F757
:2034600000C00197A109B109E1CF8091DB010C9443148F929F92AF92BF92CF92DF92EF92C5
:20348000FF920F931F930E94DF1981E080935B0380935C0381E090E090935A0380935903A9
:2034A00090935803809357031092540310925303109256031092550360915302709154029E
:2034C000072E000C880B990B97FF22C00E948E1968E670E087E493E00E9454074AE063E0CD
:2034E00070E080E090E00E944019E0915602F0915702E730F10508F0A1C0EF57F54E0C947F
:203500007C258C1AF21A331B5B1B831B881B911B4AE00E944019DCCF0E944607C090960101
:20352000D0909701E0909801F090990120919A014B015C018C189D08AE08BF0875016401DA
:2035400021112BC0009100011091010120910201309103010C151D052E053F0558F421E099
:2035600020939A016093960170939701809398019093990180919A010E94191980E00E94ED
:20358000B51880915502882309F458C062E270E081E890E00E94C91951C027E9C216D10477
:2035A000E104F10438F310929A01609396017093970180939801909399010E94B52428EBAD
:2035C0003BE040E050E00E940D256053784F8F4F9F4F609300017093010180930201909334
:2035E0000301C8CF0E944607009192011091930120919401309195014B015C01801A910A6D
:20360000A20AB30A95018401053B11052105310570F03091910121E023272093910160933E
:20362000920170939301809394019093950180E00E941919809191010E94B5188091560250
:20364000909157028230910538F08430910508F473C0069708F479C060E087E00E94A30643
:20366000609155026EC00E944607009192011091930120919401309195015B016C01A01A6C
:20368000B10AC20AD30A96018501073911052105310570F03091910121E0232720939101B4
:2036A000609392017093930180939401909395010E94F518BFCF0E94F518EE24E394F12CFA
:2036C0000CE310E022E330E042E350E06CE170E087E493E00E94520E2EE430E04CE350E0A3
:2036E00062E370E087E493E00E94520E02E310E024E630E04CE350E06EE470E087E493E087
:203700000E94520E9BCF0E94D1180E94871896CF0E94D1180E94871862E270E086E790E0CF
:2037200039CF80E00E94191980E00E94B5186FE170E08AE690E02ECF61E087E00E94A3060E
:2037400060E088E00E94A3062EC060E087E00E94A3060E9446076B017C0180918D019091FE
:203760008E01A0918F01B0919001A7019601281B390B4A0B5B0BDA01C9018B3F9105A105FB
:20378000B10588F060918C0181E0682760938C0188E00E94A306C0928D01D0928E01E09217
:2037A0008F01F09290011F910F91FF90EF90DF90CF90BF90AF909F908F900C94E7161F9210
:2037C0000F920FB60F9211242F933F938F939F93AF93BF9380916A0290916B02A0916C0287
:2037E000B0916D023091690223E0230F2D3758F50196A11DB11D2093690280936A02909324
:203800006B02A0936C02B0936D0280916E0290916F02A0917002B09171020196A11DB11D5B
:2038200080936E0290936F02A0937002B0937102BF91AF919F918F913F912F910F900FBE3A
:203840000F901F90189526E8230F0296A11DB11DD2CF1F920F920FB60F9211242F933F93E7
:203860004F935F936F937F938F939F93AF93BF93EF93FF9386E792E00E94F607FF91EF91D6
:20388000BF91AF919F918F917F916F915F914F913F912F910F900FBE0F901F9018951F92C0
:2038A0000F920FB60F9211242F938F939F93EF93FF93E0918602F09187028081E0918C029F
:2038C000F0918D0282FD1BC0908180918F028F5F8F7320919002821741F0E0918F02F0E0FC
:2038E000EA58FD4F958F80938F02FF91EF919F918F912F910F900FBE0F901F9018958081EA
:20390000F4CF1F920F920FB60F9211242F933F934F935F936F937F938F939F93AF93BF9393
:20392000CF93DF93EF93FF9380914B02C0913703D0E087FF24C0109285001092840080913E
:203940004B028F5F80934B0280914B02082E000C990B8C179D0724F480914B028C30C4F15A
:203960008091840090918500049680349C4908F47AC08091840090918500049676C0809187
:203980004B02082E000C990B8C179D07C4F6E0914B028E2FEE0F990BFC01EE0FFF1FE80FC8
:2039A000F91FED5EFC4F808186FFC9CFE0914B028E2FEE0F990BFC01EE0FFF1FE80FF91FF8
:2039C000ED5EFC4F808160E08F730E94A306B7CF2091840030918500E0914B028E2FEE0F4A
:2039E000990BFC01EE0FFF1FE80FF91FED5EFC4F81819281820F931F9093890080938800C7
:203A0000E0914B028E2FEE0F990BFC01EE0FFF1FE80FF91FED5EFC4F808186FF11C0E09105
:203A20004B028E2FEE0F990BFC01EE0FFF1FE80FF91FED5EFC4F808161E08F730E94A3068F
:203A4000FF91EF91DF91CF91BF91AF919F918F917F916F915F914F913F912F910F900FBECA
:203A60000F901F90189580E49CE990938900809388008FEF80934B02E3CF1F920F920FB674
:203A80000F9211242F933F934F935F936F937F938F939F93AF93BF93EF93FF938091B9000E
:203AA000887F803609F44AC0F0F5883209F4A7C018F5803109F49BC0B8F4882309F4F9C01C
:203AC000883009F494C0FF91EF91BF91AF919F918F917F916F915F914F913F912F910F90DE
:203AE0000FBE0F901F901895883109F488C0803251F78093240214C0803409F49DC040F4B7
:203B00008033B9F38833F9F68093240285ECB0C0803509F485C0883509F496C0883499F630
:203B20000E94011AD0CF883909F48CC038F5883729F050F4883611F0803729F683E08093CB
:203B400025021092230257C0883809F47BC0803919F0803809F0B7CF80912302803208F08F
:203B600071C0E091230281E08E0F809323028091BB00F0E0ED5FFD4F80833DC0803B39F030
:203B8000E0F4803A09F479C0883A09F09CCF84E0809325021092020210920102E0914F0290
:203BA000F091500209958091010281110FC081E0809301021092E10109C0803C09F4A6CF2D
:203BC000883C09F4A3CF883B09F07DCFE091020281E08E0F80930202F0E0EF51FE4F8081C2
:203BE0008093BB00909102028091010229C080914A028093BB0085EC8093BC0064CF909116
:203C0000490280914802981758F5E091490281E08E0F80934902F0E0E85DFD4F8081E9CFD0
:203C2000E091490281E08E0F809349028091BB00F0E0E85DFD4F8083909149028091480275
:203C40009817C8F285E8D8CFE091490281E08E0F809349028091BB00F0E0E85DFD4F80839F
:203C60008091270281115CCF81E08093260284EA8093BC001092250226CF85EC8093BC0076
:203C80001092250280912302803230F4E0912302F0E0ED5FFD4F10826091230270E0E091E8
:203CA0004D02F0914E0283E092E00995109223020ACF1092240234CF1092790210927802CD
:203CC00088EE93E0A0E0B0E080937A0290937B02A0937C02B0937D0226E131E030937702F5
:203CE0002093760225EC30E0309383022093820224EC30E0309385022093840220EC30E03A
:203D0000309387022093860221EC30E0309389022093880222EC30E030938B0220938A02C7
:203D200026EC30E030938D0220938C0210928F0210929002109291021092920210923E0319
:203D400010923D0380933F0390934003A0934103B093420388E291E090933C0380933B0339
:203D600010924A031092490320E830E030934C0320934B0380E490E090934E0380934D0390
:203D80003093500320934F03909352038093510310925D031092540310925303109256033B
:203DA0001092550381E080935C0380935B032FEF3FEF30935A032093590330935803209379
:203DC000570380935E0310925F0310926103109260038AE391E090934803809347031092BB
:203DE0006303109262038BE393E0909365038093640310926703109266039FEF90936B033A
:203E000090936C0390936D0390936E0390936F0340E85AE166E070E040937C0350937D03A6
:203E200060937E0370937F0340EA56E861E070E040938003509381036093820370938303D2
:203E400080E58093850310928603809137038C3098F491E0980F909337038093380390E071
:203E6000FC01EE0FFF1FE80FF91FED5EFC4F88EB9BE09283818308959093380308957894DA
:203E800084B5826084BD84B5816084BD85B5826085BD85B5816085BD80916E00816080933D
:203EA0006E00109281008091810082608093810080918100816080938100809180008160F0
:203EC000809380008091B10084608093B1008091B00081608093B00080917A0084608093FE
:203EE0007A0080917A00826080937A0080917A00816080937A0080917A00806880937A0055
:203F00001092C100E0918602F091870282E08083E0918202F09183021082E0918402F091D1
:203F2000850280E1808310928E02E0918A02F0918B0286E08083E0918802F09189028081E8
:203F400080618083E0918802F0918902808188608083E0918802F091890280818068808397
:203F6000E0918802F091890280818F7D808360EE7AE086E792E00E94AF1980E480937C0046
:203F800080917A00806480937A0080917A0086FDFCCF6091780070917900072E000C880B95
:203FA000990B611571058105910511F00E94042587E00E94840688E00E94840660E087E0BB
:203FC0000E94A30660E088E00E94A30668EB7AE086E792E00E94AF191092520210925102C2
:203FE00010927302109272020E94251482E597E09093500280934F0283E597E090934E02B0
:2040000080934D028091660390916703892B21F520914D0330914E03C901079697FD0796C4
:20402000B3E095958795BA95E1F720914B0330914C03AC01429FC001439F900D529F900D15
:2040400011240E949125909367038093660366E97AE0892B09F4F1C10E94DF1920914D0323
:2040600030914E0380914B0390914C03B901213231050CF4B3C06054710977FF02C06F5F75
:204080007F4F759567958255910997FD019600E410E022E530E043E957E0959587950E947A
:2040A000EF1282E0809369038091640390916503892B09F4A6C08CE3809368031092520223
:2040C0001092510210927302109272020E94251482E597E09093500280934F0283E597E04D
:2040E00090934E0280934D0280916F0387FD1DC00E94840661E080916F030E94A30661E08B
:2041000070E080E090E00E94140760E080916F030E94A3066AE070E080E090E00E9414078D
:2041200061E080916F030E94A3068091640390916503892B09F41CC120917C0330917D0370
:2041400040917E0350917F0360E074E284EF90E00E943F2520513109410951095695479515
:20416000379527952093B80064E08FEA95E00E94D01560914D03615087E493E00E94851686
:2041800064E08BEA95E00E94D0158091690364E1813009F460E187E493E00E94851664E05A
:2041A00087EA95E00E94D0158FE88093840380914B0390914C038038910509F020C2809178
:2041C0004D0390914E038034910509F028C280916903813009F4E3C08FECE2C060527109D9
:2041E00077FF02C06F5F7F4F759567958357910997FD019600E210E023E730E043EB55E0F7
:204200004CCF80916D030E94840680916E030E94840680916D03082E000C990BFC01EC5484
:20422000F44FE491F0E0EE0FFF1FE056F44F259134913093750320937403FC01E853F44F07
:20424000E491E0937A0380916E03082E000C990BFC01EC54F44FE491F0E0EE0FFF1FE0567B
:20426000F44FA591B491B0937703A0937603FC01E853F44FE491E0937B038C91E82BEC9387
:204280008091620390916303892B89F1CFB7F89480914C02811124C0EEEBFBE08491E2ED74
:2042A000FBE09491E82FF0E0EE0FFF1FE655F44FA591B491EC91E92321F461E08AE00E9418
:2042C000A3068AE00E9484068CB580618CBD8CB580648CBD8DE00E9484068BE00E94840696
:2042E00080914C028F5F80934C02CFBFFDCE80916B030E94840680916C030E94840680914F
:204300006B03082E000C990BFC01EC54F44FE491F0E0EE0FFF1FE056F44F259134913093B2
:20432000710320937003FC01E853F44FE491E093780380916C03082E000C990BFC01EC5462
:20434000F44FE491F0E0EE0FFF1FE056F44FA591B491B0937303A0937203FC01E853F44FEA
:20436000E491E09379038C91E095E823EC93BCCE8091620390916303892B31F080918503C8
:20438000909186030E94E30AE0917603F0917703908180917B03809589238083E5CE8FE970
:2043A00080938403C2E16AED87E493E00E9485166C2F87E493E00E94851661E887E493E071
:2043C0000E9485166091840387E493E00E94851669ED87E493E00E9485168091690361EFCF
:2043E000813009F462E287E493E00E94851666E081EA95E00E94D015809164039091650302
:20440000892B09F420C12091800330918103409182035091830360E074E284EF90E00E94B9
:204420003F25205131094109510956954795379527952093B80064E87AE086E792E00E94E8
:20444000AF190E94DF190E94E71662E77AE086E792E00E94AF19809138038C3008F050C05F
:2044600089E00E94840680913803282F30E0F901EE0FFF1FE20FF31FED5EFC4F9081907C29
:20448000996090831092390310923A032CE0622F0E947025829FB001112430E020E0AB01BC
:2044A000420F531FFA01EE0FFF1FE40FF51FED5EFC4F908196FD16C02F5F3F4F2C3031055E
:2044C00071F781110FC01092800082E0809381001092850010928400B19A80916F00826001
:2044E00080936F00E09138038E2F90E0FC01EE0FFF1FE80FF91FED5EFC4F808180648083BC
:2045000090E080E00E941B0665E67AE086E792E00E94AF1910925402109253021092550232
:20452000109257021092560263E57AE086E792E00E94AF1934E0232E312C05E010E042E0E2
:20454000E42EF12C53E0C52ED12C66E0A62EB12C86E792E00E94D607181619060CF095C115
:2045600086E792E00E94B4078A3009F07DC1E0916802F0E0E85AFD4F10821092680265E6EC
:2045800071E088E592E00E94C226EC01892B09F028C16EE67BE086E792E00E94AF198091D5
:2045A0005502811109C0809053029090540253E0851691040CF451C06CE27BE086E792E072
:2045C0000E94AF1910935702009356020E9446072B013C010E944607641975098609970919
:2045E000603D77408105910508F0F6C00E94391A64E170E080E090E00E941407EBCF803616
:20460000910589F480914D0390914E03409739F480916903813029F08FEA80938403C2E0B4
:20462000C2CE80E1FACF80349105C9F780914D0390914E03809799F780916903813009F015
:20464000CBCD80E1ADCEE0917603F0917703808190917B03892B8083EECE0E94460740902F
:20466000040150900501609006017090070164197509860997096838734181059105E8F4DA
:20468000B0925702A09256020E9446072B013C010E9446076419750986099709603B744035
:2046A0008105910508F098C00E94391A64E170E080E090E00E941407EBCF8FEF881A980AFB
:2046C0009092540280925302F0925702E0925602CE010E941B060E94391A6FE070E080E0D0
:2046E00090E00E9414072396C939D10589F786E990E00E941B060E9446072B013C010E94E0
:2047000046076419750986099709683873418105910548F40E94391A64E170E080E090E01C
:204720000E941407ECCFC6E9D0E0CE010E941B060E94391A6FE070E080E090E00E941407EF
:204740002397CD3F4FEFD40781F790E080E00E941B060E944607609304017093050180936C
:20476000060190930701D0925702C09256020E9446072B013C010E944607641975098609D1
:204780009709683572408105910548F40E94391A64E170E080E090E00E941407ECCF8091EF
:2047A0005302909154020397BCF081E080935502E09138038E2F90E0FC01EE0FFF1FE80F34
:2047C000F91FED5EFC4F80818F7B80836DEF7AE086E792E00E94AF19109257021092560229
:2047E000B7CE6EE671E088E592E00E94C226892B11F560E57BE086E792E00E94AF193092C1
:204800005702209256020E9446072B013C010E9446076419750986099709603D77408105EA
:204820009105D0F60E94391A64E170E080E090E00E941407ECCF65E771E088E592E00E942C
:20484000C226892B39F441E050E050935702409356027ECE61E871E088E592E00E94C22688
:20486000892B09F4B9CF74CE8D3009F471CEE0916802EF3008F06CCE91E09E0F90936802ED
:20488000F0E0E85AFD4F808363CE0E94391A64E170E080E090E00E94140780E090E0892BEB
:2048A00009F456CE0E94E207882309F451CE0E9400004ECE8AE391E090934803809347031E
:2048C0008091660390916703009711F00C942D2608958F929F92AF92BF92CF92DF92EF9274
:2048E000FF92CF93DF93EC01688179818A819B81611571058105910521F464E279ED8BE523
:2049000097E02DE133EF41E050E00E940D2549015A019B01AC01A7EAB1E40E942C256B0158
:204920007C01ACEEB4EFA50194010E943A25C60ED71EE81EF91EF7FE06C081E0C81AD108C4
:20494000E10880E8F80AC882D982EA82FB82C701B6019F77DF91CF91FF90EF90DF90CF9035
:20496000BF90AF909F908F9008958F929F92AF92BF92CF92DF92EF92FF92609108017091FB
:20498000090180910A0190910B01611571058105910521F464E279ED8BE597E02DE133EFE4
:2049A00041E050E00E940D2549015A019B01AC01A7EAB1E40E942C256B017C01ACEEB4EFA5
:2049C000A50194010E943A25C60ED71EE81EF91EF7FE06C081E0C81AD108E10880E8F80A8B
:2049E000C0920801D0920901E0920A01F0920B01C701B6019F77FF90EF90DF90CF90BF9025
:204A0000AF909F908F900895609308017093090180930A0190930B010895052E97FB1EF4A2
:204A200000940E94242557FD07D00E943F2507FC03D04EF40C942425509540953095219590
:204A40003F4F4F4F5F4F089590958095709561957F4F8F4F9F4F08950E946125A59F900D6A
:204A6000B49F900DA49F800D911D11240895B7FF0C942C250E942C25821B930B0895A1E201
:204A80001A2EAA1BBB1BFD010DC0AA1FBB1FEE1FFF1FA217B307E407F50720F0A21BB30BB5
:204AA000E40BF50B661F771F881F991F1A9469F760957095809590959B01AC01BD01CF0174
:204AC0000895A29FB001B39FC001A39F700D811D1124911DB29F700D811D1124911D089508
:204AE000991B79E004C0991F961708F0961B881F7A95C9F780950895EE0FFF1F0590F4917A
:204B0000E02D09940E946125332312F48A1B9B0B0C948C250E946125B7FF0895821B930B15
:204B200008950F931F93CF93DF938230910510F482E090E0E0918903F0918A0330E020E077
:204B4000B0E0A0E0309799F42115310509F44AC0281B390B24303105D8F58A819B81611503
:204B6000710589F1FB0193838283FE0111C0408151810281138148175907E0F04817590766
:204B800099F4109761F012960C93129713961C933296CF01DF91CF911F910F910895009360
:204BA000890310938A03F4CF2115310551F04217530738F0A901DB019A01BD01DF01F80136
:204BC000C1CFEF01F9CF90938A0380938903CDCFFE01E20FF31F8193919322503109398300
:204BE0002883D7CF2091870330918803232B41F420910E0130910F0130938803209387033E
:204C000020910C0130910D012115310541F42DB73EB74091100150911101241B350BE091C8
:204C20008703F0918803E217F307A0F42E1B3F0B2817390778F0AC014E5F5F4F241735075E
:204C400048F04E0F5F1F5093880340938703819391939FCFF0E0E0E09CCFCF93DF9300976A
:204C6000E9F0FC01329713821282A0918903B0918A03ED0130E020E01097A1F42081318154
:204C8000820F931F20918703309188032817390709F061C0F0938803E0938703DF91CF91D6
:204CA0000895EA01CE17DF07E8F54A815B819E0141155105B1F7E901FB83EA834991599191
:204CC000C40FD51FEC17FD0761F4808191810296840F951FE90199838883828193819B8379
:204CE0008A83F0E0E0E012968D919C9113970097B9F52D913C911197CD010296820F931F59
:204D000020918703309188032817390739F6309751F510928A0310928903B0938803A093F3
:204D20008703BCCFD383C28340815181840F951FC817D90761F44E5F5F4F88819981480F00
:204D4000591F518340838A819B81938382832115310509F0B0CFF0938A03E09389039ECFA2
:204D6000FD01DC01C0CF13821282D7CF81E090E0F8940C94CB26DC0101C06D93415050404D
:204D8000E0F70895FB01DC018D91019080190110D9F3990B089515E0CFEED5E004C0FE0136
:204DA0000E947C252196C03FD107C9F7F894FFCFB80B000078ECFFFF0100000000008B0354
:204DC00080000000000018087807A5076508D607B407C80700000000BA148D1484181A0609
:204DE00086147314641400000000210D78078418FD132C0A1A06E8129E0F8611AE0F50130D
:204E00001A06E70A2E189C09E509E70ECA0E520EF30D0D0A0044495350454E534500455272
:204E200052455552005041524C455F4445425554005041524C455F46494E00004500455261
:204E400052455552005041524C455F4445425554005041524C455F46494E0000005041523A
:204E60004C455F46494E0000FFFFFFFFFFFFFFFFFFFFFFFFFFFFFFFFFFFFFFFFFFFFFFFF7D
:204E8000FFFFFFFFFFFFFFFFFFFFFFFFFFFFFFFFFFFFFFFFFFFFFFFFFFFFFFFFFFFFFFFF32
:204EA000FFFFFFFFFFFFFFFFFFFFFFFFFFFFFFFFFFFFFFFFFFFFFFFFFFFFFFFFFFFFFFFF12
:204EC000FFFFFFFFFFFFFFFFFFFFFFFFFFFFFFFFFFFFFFFFFFFFFFFFFFFFFFFFFFFFFFFFF2
:204EE000FFFFFFFFFFFFFFFFFFFFFFFFFFFFFFFFFFFFFFFFFFFFFFFFFFFFFFFFFFFFFFFFD2
:207E0000112484B714BE81FFF0D085E08093810082E08093C00088E18093C10086E08093FC
:207E2000C20080E18093C4008EE0C9D0259A86E020E33CEF91E0309385002093840096BBAD
:207E4000B09BFECF1D9AA8958150A9F7CC24DD2488248394B5E0AB2EA1E19A2EF3E0BF2E79
:207E6000A2D0813461F49FD0082FAFD0023811F0013811F484E001C083E08DD089C0823404
:207E800011F484E103C0853419F485E0A6D080C0853579F488D0E82EFF2485D0082F10E0A0
:207EA000102F00270E291F29000F111F8ED068016FC0863521F484E090D080E0DECF84364D
:207EC00009F040C070D06FD0082F6DD080E0C81680E7D80618F4F601B7BEE895C0E0D1E0ED
:207EE00062D089930C17E1F7F0E0CF16F0E7DF0618F0F601B7BEE89568D007B600FCFDCF1A
:207F0000A601A0E0B1E02C9130E011968C91119790E0982F8827822B932B1296FA010C016F
:207F200087BEE89511244E5F5F4FF1E0A038BF0751F7F601A7BEE89507B600FCFDCF97BE85
:207F4000E89526C08437B1F42ED02DD0F82E2BD03CD0F601EF2C8F010F5F1F4F84911BD0B8
:207F6000EA94F801C1F70894C11CD11CFA94CF0CD11C0EC0853739F428D08EE10CD085E9AE
:207F80000AD08FE07ACF813511F488E018D01DD080E101D065CF982F8091C00085FFFCCF0A
:207FA0009093C60008958091C00087FFFCCF8091C00084FD01C0A8958091C6000895E0E68F
:207FC000F0E098E1908380830895EDDF803219F088E0F5DFFFCF84E1DECF1F93182FE3DF47
:207FE0001150E9F7F2DF1F91089580E0E8DFEE27FF270994FFFFFFFFFFFFFFFFFFFF040425
:00000001FF
